{
  "_format": "hh-sol-artifact-1",
  "contractName": "ProjectEscrowImproved",
  "sourceName": "contracts/ProjectEscrow.sol",
  "abi": [
    {
      "inputs": [],
      "stateMutability": "nonpayable",
      "type": "constructor"
    },
    {
      "anonymous": false,
      "inputs": [
        {
          "indexed": true,
          "internalType": "address",
          "name": "admin",
          "type": "address"
        }
      ],
      "name": "AdminAdded",
      "type": "event"
    },
    {
      "anonymous": false,
      "inputs": [
        {
          "indexed": true,
          "internalType": "address",
          "name": "admin",
          "type": "address"
        }
      ],
      "name": "AdminRemoved",
      "type": "event"
    },
    {
      "anonymous": false,
      "inputs": [
        {
          "indexed": true,
          "internalType": "address",
          "name": "by",
          "type": "address"
        }
      ],
      "name": "ContractPaused",
      "type": "event"
    },
    {
      "anonymous": false,
      "inputs": [
        {
          "indexed": true,
          "internalType": "address",
          "name": "by",
          "type": "address"
        }
      ],
      "name": "ContractUnpaused",
      "type": "event"
    },
    {
      "anonymous": false,
      "inputs": [
        {
          "indexed": true,
          "internalType": "uint256",
          "name": "disputeId",
          "type": "uint256"
        },
        {
          "indexed": true,
          "internalType": "uint256",
          "name": "projectId",
          "type": "uint256"
        },
        {
          "indexed": false,
          "internalType": "address",
          "name": "initiator",
          "type": "address"
        }
      ],
      "name": "DisputeRaised",
      "type": "event"
    },
    {
      "anonymous": false,
      "inputs": [
        {
          "indexed": true,
          "internalType": "uint256",
          "name": "disputeId",
          "type": "uint256"
        },
        {
          "indexed": false,
          "internalType": "uint256",
          "name": "percentageToFreelancer",
          "type": "uint256"
        }
      ],
      "name": "DisputeResolved",
      "type": "event"
    },
    {
      "anonymous": false,
      "inputs": [
        {
          "indexed": true,
          "internalType": "uint256",
          "name": "disputeId",
          "type": "uint256"
        },
        {
          "indexed": true,
          "internalType": "address",
          "name": "admin",
          "type": "address"
        },
        {
          "indexed": false,
          "internalType": "uint256",
          "name": "percentage",
          "type": "uint256"
        }
      ],
      "name": "DisputeVoted",
      "type": "event"
    },
    {
      "anonymous": false,
      "inputs": [
        {
          "indexed": true,
          "internalType": "uint256",
          "name": "projectId",
          "type": "uint256"
        },
        {
          "indexed": false,
          "internalType": "uint256",
          "name": "amount",
          "type": "uint256"
        }
      ],
      "name": "FundsDeposited",
      "type": "event"
    },
    {
      "anonymous": false,
      "inputs": [
        {
          "indexed": true,
          "internalType": "uint256",
          "name": "projectId",
          "type": "uint256"
        },
        {
          "indexed": false,
          "internalType": "uint256",
          "name": "milestoneId",
          "type": "uint256"
        }
      ],
      "name": "MilestoneApproved",
      "type": "event"
    },
    {
      "anonymous": false,
      "inputs": [
        {
          "indexed": true,
          "internalType": "uint256",
          "name": "projectId",
          "type": "uint256"
        },
        {
          "indexed": false,
          "internalType": "uint256",
          "name": "milestoneId",
          "type": "uint256"
        }
      ],
      "name": "MilestoneAutoApproved",
      "type": "event"
    },
    {
      "anonymous": false,
      "inputs": [
        {
          "indexed": true,
          "internalType": "uint256",
          "name": "projectId",
          "type": "uint256"
        },
        {
          "indexed": false,
          "internalType": "uint256",
          "name": "milestoneId",
          "type": "uint256"
        },
        {
          "indexed": false,
          "internalType": "string",
          "name": "deliverableHash",
          "type": "string"
        }
      ],
      "name": "MilestoneSubmitted",
      "type": "event"
    },
    {
      "anonymous": false,
      "inputs": [
        {
          "indexed": true,
          "internalType": "address",
          "name": "previousOwner",
          "type": "address"
        },
        {
          "indexed": true,
          "internalType": "address",
          "name": "newOwner",
          "type": "address"
        }
      ],
      "name": "OwnershipTransferred",
      "type": "event"
    },
    {
      "anonymous": false,
      "inputs": [
        {
          "indexed": false,
          "internalType": "address",
          "name": "account",
          "type": "address"
        }
      ],
      "name": "Paused",
      "type": "event"
    },
    {
      "anonymous": false,
      "inputs": [
        {
          "indexed": true,
          "internalType": "uint256",
          "name": "projectId",
          "type": "uint256"
        },
        {
          "indexed": false,
          "internalType": "uint256",
          "name": "milestoneId",
          "type": "uint256"
        },
        {
          "indexed": false,
          "internalType": "uint256",
          "name": "amount",
          "type": "uint256"
        }
      ],
      "name": "PaymentReleased",
      "type": "event"
    },
    {
      "anonymous": false,
      "inputs": [
        {
          "indexed": true,
          "internalType": "uint256",
          "name": "projectId",
          "type": "uint256"
        },
        {
          "indexed": true,
          "internalType": "address",
          "name": "freelancer",
          "type": "address"
        }
      ],
      "name": "ProjectAccepted",
      "type": "event"
    },
    {
      "anonymous": false,
      "inputs": [
        {
          "indexed": true,
          "internalType": "uint256",
          "name": "projectId",
          "type": "uint256"
        },
        {
          "indexed": true,
          "internalType": "address",
          "name": "client",
          "type": "address"
        },
        {
          "indexed": false,
          "internalType": "uint256",
          "name": "totalAmount",
          "type": "uint256"
        }
      ],
      "name": "ProjectCreated",
      "type": "event"
    },
    {
      "anonymous": false,
      "inputs": [
        {
          "indexed": false,
          "internalType": "address",
          "name": "account",
          "type": "address"
        }
      ],
      "name": "Unpaused",
      "type": "event"
    },
    {
      "anonymous": false,
      "inputs": [
        {
          "indexed": true,
          "internalType": "address",
          "name": "user",
          "type": "address"
        },
        {
          "indexed": false,
          "internalType": "uint256",
          "name": "rating",
          "type": "uint256"
        }
      ],
      "name": "UserRated",
      "type": "event"
    },
    {
      "inputs": [],
      "name": "AUTO_APPROVE_TIMEOUT",
      "outputs": [
        {
          "internalType": "uint256",
          "name": "",
          "type": "uint256"
        }
      ],
      "stateMutability": "view",
      "type": "function"
    },
    {
      "inputs": [],
      "name": "DISPUTE_TIMEOUT",
      "outputs": [
        {
          "internalType": "uint256",
          "name": "",
          "type": "uint256"
        }
      ],
      "stateMutability": "view",
      "type": "function"
    },
    {
      "inputs": [],
      "name": "REQUIRED_ADMIN_VOTES",
      "outputs": [
        {
          "internalType": "uint256",
          "name": "",
          "type": "uint256"
        }
      ],
      "stateMutability": "view",
      "type": "function"
    },
    {
      "inputs": [
        {
          "internalType": "uint256",
          "name": "_projectId",
          "type": "uint256"
        }
      ],
      "name": "acceptProject",
      "outputs": [],
      "stateMutability": "nonpayable",
      "type": "function"
    },
    {
      "inputs": [
        {
          "internalType": "address",
          "name": "_admin",
          "type": "address"
        }
      ],
      "name": "addAdmin",
      "outputs": [],
      "stateMutability": "nonpayable",
      "type": "function"
    },
    {
      "inputs": [
        {
          "internalType": "uint256",
          "name": "",
          "type": "uint256"
        }
      ],
      "name": "adminList",
      "outputs": [
        {
          "internalType": "address",
          "name": "",
          "type": "address"
        }
      ],
      "stateMutability": "view",
      "type": "function"
    },
    {
      "inputs": [
        {
          "internalType": "uint256",
          "name": "_projectId",
          "type": "uint256"
        },
        {
          "internalType": "uint256",
          "name": "_milestoneId",
          "type": "uint256"
        }
      ],
      "name": "approveMilestone",
      "outputs": [],
      "stateMutability": "nonpayable",
      "type": "function"
    },
    {
      "inputs": [
        {
          "internalType": "uint256",
          "name": "_projectId",
          "type": "uint256"
        },
        {
          "internalType": "uint256",
          "name": "_milestoneId",
          "type": "uint256"
        }
      ],
      "name": "autoApproveMilestone",
      "outputs": [],
      "stateMutability": "nonpayable",
      "type": "function"
    },
    {
      "inputs": [
        {
          "internalType": "uint256",
          "name": "_projectId",
          "type": "uint256"
        },
        {
          "internalType": "uint256",
          "name": "_milestoneId",
          "type": "uint256"
        }
      ],
      "name": "canAutoApprove",
      "outputs": [
        {
          "internalType": "bool",
          "name": "",
          "type": "bool"
        }
      ],
      "stateMutability": "view",
      "type": "function"
    },
    {
      "inputs": [
        {
          "internalType": "uint256",
          "name": "_projectId",
          "type": "uint256"
        }
      ],
      "name": "cancelProject",
      "outputs": [],
      "stateMutability": "nonpayable",
      "type": "function"
    },
    {
      "inputs": [
        {
          "internalType": "string",
          "name": "_title",
          "type": "string"
        },
        {
          "internalType": "string",
          "name": "_descriptionHash",
          "type": "string"
        },
        {
          "internalType": "string[]",
          "name": "_milestoneDescriptions",
          "type": "string[]"
        },
        {
          "internalType": "uint256[]",
          "name": "_milestoneAmounts",
          "type": "uint256[]"
        },
        {
          "internalType": "uint256[]",
          "name": "_milestoneDeadlines",
          "type": "uint256[]"
        }
      ],
      "name": "createProject",
      "outputs": [
        {
          "internalType": "uint256",
          "name": "",
          "type": "uint256"
        }
      ],
      "stateMutability": "payable",
      "type": "function"
    },
    {
      "inputs": [],
      "name": "disputeCounter",
      "outputs": [
        {
          "internalType": "uint256",
          "name": "",
          "type": "uint256"
        }
      ],
      "stateMutability": "view",
      "type": "function"
    },
    {
      "inputs": [
        {
          "internalType": "uint256",
          "name": "",
          "type": "uint256"
        }
      ],
      "name": "disputes",
      "outputs": [
        {
          "internalType": "uint256",
          "name": "projectId",
          "type": "uint256"
        },
        {
          "internalType": "uint256",
          "name": "milestoneId",
          "type": "uint256"
        },
        {
          "internalType": "address",
          "name": "initiator",
          "type": "address"
        },
        {
          "internalType": "string",
          "name": "reason",
          "type": "string"
        },
        {
          "internalType": "bool",
          "name": "isResolved",
          "type": "bool"
        },
        {
          "internalType": "uint256",
          "name": "createdAt",
          "type": "uint256"
        },
        {
          "internalType": "uint256",
          "name": "voteCount",
          "type": "uint256"
        }
      ],
      "stateMutability": "view",
      "type": "function"
    },
    {
      "inputs": [],
      "name": "getAdminList",
      "outputs": [
        {
          "internalType": "address[]",
          "name": "",
          "type": "address[]"
        }
      ],
      "stateMutability": "view",
      "type": "function"
    },
    {
      "inputs": [],
      "name": "getContractBalance",
      "outputs": [
        {
          "internalType": "uint256",
          "name": "",
          "type": "uint256"
        }
      ],
      "stateMutability": "view",
      "type": "function"
    },
    {
      "inputs": [
        {
          "internalType": "uint256",
          "name": "_disputeId",
          "type": "uint256"
        }
      ],
      "name": "getDisputeVotes",
      "outputs": [
        {
          "internalType": "uint256",
          "name": "voteCount",
          "type": "uint256"
        },
        {
          "internalType": "bool",
          "name": "isResolved",
          "type": "bool"
        },
        {
          "internalType": "address[]",
          "name": "voters",
          "type": "address[]"
        },
        {
          "internalType": "uint256[]",
          "name": "percentages",
          "type": "uint256[]"
        }
      ],
      "stateMutability": "view",
      "type": "function"
    },
    {
      "inputs": [
        {
          "internalType": "uint256",
          "name": "_projectId",
          "type": "uint256"
        }
      ],
      "name": "getProjectMilestones",
      "outputs": [
        {
          "components": [
            {
              "internalType": "string",
              "name": "description",
              "type": "string"
            },
            {
              "internalType": "uint256",
              "name": "amount",
              "type": "uint256"
            },
            {
              "internalType": "uint256",
              "name": "deadline",
              "type": "uint256"
            },
            {
              "internalType": "enum ProjectEscrowImproved.MilestoneStatus",
              "name": "status",
              "type": "uint8"
            },
            {
              "internalType": "string",
              "name": "deliverableHash",
              "type": "string"
            },
            {
              "internalType": "uint256",
              "name": "submittedAt",
              "type": "uint256"
            }
          ],
          "internalType": "struct ProjectEscrowImproved.Milestone[]",
          "name": "",
          "type": "tuple[]"
        }
      ],
      "stateMutability": "view",
      "type": "function"
    },
    {
      "inputs": [
        {
          "internalType": "address",
          "name": "_user",
          "type": "address"
        }
      ],
      "name": "getUserProjects",
      "outputs": [
        {
          "internalType": "uint256[]",
          "name": "",
          "type": "uint256[]"
        }
      ],
      "stateMutability": "view",
      "type": "function"
    },
    {
      "inputs": [
        {
          "internalType": "address",
          "name": "_user",
          "type": "address"
        }
      ],
      "name": "getUserRating",
      "outputs": [
        {
          "internalType": "uint256",
          "name": "",
          "type": "uint256"
        }
      ],
      "stateMutability": "view",
      "type": "function"
    },
    {
      "inputs": [
        {
          "internalType": "address",
          "name": "",
          "type": "address"
        }
      ],
      "name": "isAdmin",
      "outputs": [
        {
          "internalType": "bool",
          "name": "",
          "type": "bool"
        }
      ],
      "stateMutability": "view",
      "type": "function"
    },
    {
      "inputs": [],
      "name": "owner",
      "outputs": [
        {
          "internalType": "address",
          "name": "",
          "type": "address"
        }
      ],
      "stateMutability": "view",
      "type": "function"
    },
    {
      "inputs": [],
      "name": "pause",
      "outputs": [],
      "stateMutability": "nonpayable",
      "type": "function"
    },
    {
      "inputs": [],
      "name": "paused",
      "outputs": [
        {
          "internalType": "bool",
          "name": "",
          "type": "bool"
        }
      ],
      "stateMutability": "view",
      "type": "function"
    },
    {
      "inputs": [],
      "name": "platformFeePercent",
      "outputs": [
        {
          "internalType": "uint256",
          "name": "",
          "type": "uint256"
        }
      ],
      "stateMutability": "view",
      "type": "function"
    },
    {
      "inputs": [],
      "name": "projectCounter",
      "outputs": [
        {
          "internalType": "uint256",
          "name": "",
          "type": "uint256"
        }
      ],
      "stateMutability": "view",
      "type": "function"
    },
    {
      "inputs": [
        {
          "internalType": "uint256",
          "name": "",
          "type": "uint256"
        },
        {
          "internalType": "uint256",
          "name": "",
          "type": "uint256"
        }
      ],
      "name": "projectMilestones",
      "outputs": [
        {
          "internalType": "string",
          "name": "description",
          "type": "string"
        },
        {
          "internalType": "uint256",
          "name": "amount",
          "type": "uint256"
        },
        {
          "internalType": "uint256",
          "name": "deadline",
          "type": "uint256"
        },
        {
          "internalType": "enum ProjectEscrowImproved.MilestoneStatus",
          "name": "status",
          "type": "uint8"
        },
        {
          "internalType": "string",
          "name": "deliverableHash",
          "type": "string"
        },
        {
          "internalType": "uint256",
          "name": "submittedAt",
          "type": "uint256"
        }
      ],
      "stateMutability": "view",
      "type": "function"
    },
    {
      "inputs": [
        {
          "internalType": "uint256",
          "name": "",
          "type": "uint256"
        }
      ],
      "name": "projects",
      "outputs": [
        {
          "internalType": "uint256",
          "name": "id",
          "type": "uint256"
        },
        {
          "internalType": "address payable",
          "name": "client",
          "type": "address"
        },
        {
          "internalType": "address payable",
          "name": "freelancer",
          "type": "address"
        },
        {
          "internalType": "string",
          "name": "title",
          "type": "string"
        },
        {
          "internalType": "string",
          "name": "descriptionHash",
          "type": "string"
        },
        {
          "internalType": "uint256",
          "name": "totalAmount",
          "type": "uint256"
        },
        {
          "internalType": "enum ProjectEscrowImproved.ProjectStatus",
          "name": "status",
          "type": "uint8"
        },
        {
          "internalType": "uint256",
          "name": "createdAt",
          "type": "uint256"
        },
        {
          "internalType": "uint256",
          "name": "acceptedAt",
          "type": "uint256"
        },
        {
          "internalType": "bool",
          "name": "fundsDeposited",
          "type": "bool"
        }
      ],
      "stateMutability": "view",
      "type": "function"
    },
    {
      "inputs": [
        {
          "internalType": "uint256",
          "name": "_projectId",
          "type": "uint256"
        },
        {
          "internalType": "uint256",
          "name": "_milestoneId",
          "type": "uint256"
        },
        {
          "internalType": "string",
          "name": "_reason",
          "type": "string"
        }
      ],
      "name": "raiseDispute",
      "outputs": [
        {
          "internalType": "uint256",
          "name": "",
          "type": "uint256"
        }
      ],
      "stateMutability": "nonpayable",
      "type": "function"
    },
    {
      "inputs": [
        {
          "internalType": "address",
          "name": "_user",
          "type": "address"
        },
        {
          "internalType": "uint256",
          "name": "_rating",
          "type": "uint256"
        }
      ],
      "name": "rateUser",
      "outputs": [],
      "stateMutability": "nonpayable",
      "type": "function"
    },
    {
      "inputs": [
        {
          "internalType": "address",
          "name": "_admin",
          "type": "address"
        }
      ],
      "name": "removeAdmin",
      "outputs": [],
      "stateMutability": "nonpayable",
      "type": "function"
    },
    {
      "inputs": [],
      "name": "renounceOwnership",
      "outputs": [],
      "stateMutability": "nonpayable",
      "type": "function"
    },
    {
      "inputs": [
        {
          "internalType": "uint256",
          "name": "_feePercent",
          "type": "uint256"
        }
      ],
      "name": "setPlatformFee",
      "outputs": [],
      "stateMutability": "nonpayable",
      "type": "function"
    },
    {
      "inputs": [
        {
          "internalType": "uint256",
          "name": "_projectId",
          "type": "uint256"
        },
        {
          "internalType": "uint256",
          "name": "_milestoneId",
          "type": "uint256"
        },
        {
          "internalType": "string",
          "name": "_deliverableHash",
          "type": "string"
        }
      ],
      "name": "submitMilestone",
      "outputs": [],
      "stateMutability": "nonpayable",
      "type": "function"
    },
    {
      "inputs": [
        {
          "internalType": "address",
          "name": "newOwner",
          "type": "address"
        }
      ],
      "name": "transferOwnership",
      "outputs": [],
      "stateMutability": "nonpayable",
      "type": "function"
    },
    {
      "inputs": [],
      "name": "unpause",
      "outputs": [],
      "stateMutability": "nonpayable",
      "type": "function"
    },
    {
      "inputs": [
        {
          "internalType": "address",
          "name": "",
          "type": "address"
        },
        {
          "internalType": "uint256",
          "name": "",
          "type": "uint256"
        }
      ],
      "name": "userProjects",
      "outputs": [
        {
          "internalType": "uint256",
          "name": "",
          "type": "uint256"
        }
      ],
      "stateMutability": "view",
      "type": "function"
    },
    {
      "inputs": [
        {
          "internalType": "address",
          "name": "",
          "type": "address"
        }
      ],
      "name": "userRatingCount",
      "outputs": [
        {
          "internalType": "uint256",
          "name": "",
          "type": "uint256"
        }
      ],
      "stateMutability": "view",
      "type": "function"
    },
    {
      "inputs": [
        {
          "internalType": "address",
          "name": "",
          "type": "address"
        }
      ],
      "name": "userRatings",
      "outputs": [
        {
          "internalType": "uint256",
          "name": "",
          "type": "uint256"
        }
      ],
      "stateMutability": "view",
      "type": "function"
    },
    {
      "inputs": [
        {
          "internalType": "uint256",
          "name": "_disputeId",
          "type": "uint256"
        },
        {
          "internalType": "uint256",
          "name": "_percentageToFreelancer",
          "type": "uint256"
        }
      ],
      "name": "voteOnDispute",
      "outputs": [],
      "stateMutability": "nonpayable",
      "type": "function"
    }
  ],
  "bytecode": "0x608060405260026004553480156200001657600080fd5b506001600055620000273362000093565b6001805460ff60a01b19168155336000818152600b60205260408120805460ff191684179055600c8054938401815590527fdf6966c971051c3d54ec59162606531493a51404a002842f56009d7e5cf4a8c790910180546001600160a01b0319169091179055620000e5565b600180546001600160a01b038381166001600160a01b0319831681179093556040519116919082907f8be0079c531659141344cd1fd0a4f28419497f9722a3daafe3b4186f6b6457e090600090a35050565b613c1c80620000f56000396000f3fe6080604052600436106102305760003560e01c80636cb0adba1161012e578063900f58fc116100ab578063d9f774fc1161006f578063d9f774fc146106c5578063e32e723c146106e7578063f2fde38b14610714578063f8a518ed14610734578063fd1d5ea91461074a57600080fd5b8063900f58fc146106155780639508f20a14610642578063a131331714610655578063c290dd7114610675578063c47360921461069557600080fd5b80637962a2dd116100f25780637962a2dd1461059f5780637d36f4d3146105b65780638456cb59146105cc5780638c639a85146105e15780638da5cb5b146105f757600080fd5b80636cb0adba146105055780636f9fb98a14610537578063704802751461054a578063715018a61461056a57806375a4a5031461057f57600080fd5b806324d7806c116101bc578063486265c611610180578063486265c61461044257806352766d8014610459578063564a565d146104865780635c975abb146104b9578063656f3522146104d857600080fd5b806324d7806c1461039d5780632fa9c007146103cd5780633d4effc4146103ed5780633f4ba83a1461040d578063460168c31461042257600080fd5b806311117fc81161020357806311117fc8146102e557806312e8e2c31461031d5780631785f53c1461033d57806320913da51461035d578063249411471461037d57600080fd5b80630390e07a146102355780630e36371d146102575780630e96fd131461027f578063107046bd146102af575b600080fd5b34801561024157600080fd5b50610255610250366004613346565b61076a565b005b34801561026357600080fd5b5061026c600281565b6040519081526020015b60405180910390f35b34801561028b57600080fd5b5061029f61029a366004613396565b6109c4565b6040519015158152602001610276565b3480156102bb57600080fd5b506102cf6102ca3660046133b8565b610a6a565b6040516102769a9998979695949392919061344b565b3480156102f157600080fd5b506103056103003660046133b8565b610bdc565b6040516001600160a01b039091168152602001610276565b34801561032957600080fd5b506102556103383660046133b8565b610c06565b34801561034957600080fd5b506102556103583660046134eb565b610c5c565b34801561036957600080fd5b50610255610378366004613396565b610e6b565b34801561038957600080fd5b506102556103983660046133b8565b611029565b3480156103a957600080fd5b5061029f6103b83660046134eb565b600b6020526000908152604090205460ff1681565b3480156103d957600080fd5b5061026c6103e836600461350d565b6111f2565b3480156103f957600080fd5b5061025561040836600461350d565b611223565b34801561041957600080fd5b50610255611326565b34801561042e57600080fd5b5061026c61043d3660046134eb565b611363565b34801561044e57600080fd5b5061026c6203f48081565b34801561046557600080fd5b506104796104743660046133b8565b6113b9565b6040516102769190613537565b34801561049257600080fd5b506104a66104a13660046133b8565b6115ba565b60405161027697969594939291906135f1565b3480156104c557600080fd5b50600154600160a01b900460ff1661029f565b3480156104e457600080fd5b5061026c6104f33660046134eb565b600a6020526000908152604090205481565b34801561051157600080fd5b50610525610520366004613396565b61168f565b6040516102769695949392919061363d565b34801561054357600080fd5b504761026c565b34801561055657600080fd5b506102556105653660046134eb565b611801565b34801561057657600080fd5b50610255611939565b34801561058b57600080fd5b5061025561059a366004613396565b61194d565b3480156105ab57600080fd5b5061026c62093a8081565b3480156105c257600080fd5b5061026c60035481565b3480156105d857600080fd5b50610255611b9a565b3480156105ed57600080fd5b5061026c60045481565b34801561060357600080fd5b506001546001600160a01b0316610305565b34801561062157600080fd5b5061026c6106303660046134eb565b60096020526000908152604090205481565b61026c6106503660046137a0565b611bd7565b34801561066157600080fd5b50610255610670366004613396565b6120bc565b34801561068157600080fd5b5061026c610690366004613346565b6122a7565b3480156106a157600080fd5b506106b56106b03660046133b8565b6125b6565b60405161027694939291906138e6565b3480156106d157600080fd5b506106da6128e0565b6040516102769190613924565b3480156106f357600080fd5b506107076107023660046134eb565b612942565b6040516102769190613937565b34801561072057600080fd5b5061025561072f3660046134eb565b6129ae565b34801561074057600080fd5b5061026c60025481565b34801561075657600080fd5b506102556107653660046133b8565b612a27565b8260025481106107955760405162461bcd60e51b815260040161078c9061394a565b60405180910390fd5b60008481526005602052604090206002015484906001600160a01b031633146108005760405162461bcd60e51b815260206004820152601d60248201527f4f6e6c7920667265656c616e6365722063616e2063616c6c2074686973000000604482015260640161078c565b610808612bf4565b60008581526005602052604090206001600682015460ff16600481111561083157610831613417565b1461084e5760405162461bcd60e51b815260040161078c9061397a565b600086815260066020526040902054851061087b5760405162461bcd60e51b815260040161078c906139a6565b600086815260066020526040812080548790811061089b5761089b6139d1565b6000918252602082206006909102019150600382015460ff1660048111156108c5576108c5613417565b1461090a5760405162461bcd60e51b81526020600482015260156024820152744d696c6573746f6e65206e6f742070656e64696e6760581b604482015260640161078c565b600085511161095b5760405162461bcd60e51b815260206004820152601960248201527f44656c6976657261626c65206861736820726571756972656400000000000000604482015260640161078c565b60038101805460ff19166001179055600481016109788682613a61565b5042600582015560405187907f556e3b296d5e8c8bab27684b52ae96905507befd2d188ce6f4453a6717dd9c00906109b39089908990613b21565b60405180910390a250505050505050565b600060025483106109d757506000610a64565b60008381526006602052604090205482106109f457506000610a64565b6000838152600660205260408120805484908110610a1457610a146139d1565b6000918252602090912060069091020190506001600382015460ff166004811115610a4157610a41613417565b148015610a60575062093a808160050154610a5c9190613b58565b4210155b9150505b92915050565b600560205260009081526040902080546001820154600283015460038401805493946001600160a01b03938416949390921692610aa6906139e7565b80601f0160208091040260200160405190810160405280929190818152602001828054610ad2906139e7565b8015610b1f5780601f10610af457610100808354040283529160200191610b1f565b820191906000526020600020905b815481529060010190602001808311610b0257829003601f168201915b505050505090806004018054610b34906139e7565b80601f0160208091040260200160405190810160405280929190818152602001828054610b60906139e7565b8015610bad5780601f10610b8257610100808354040283529160200191610bad565b820191906000526020600020905b815481529060010190602001808311610b9057829003601f168201915b50505060058401546006850154600786015460088701546009909701549596929560ff9283169550909350168a565b600c8181548110610bec57600080fd5b6000918252602090912001546001600160a01b0316905081565b610c0e612c41565b600a811115610c575760405162461bcd60e51b81526020600482015260156024820152744665652063616e6e6f74206578636565642031302560581b604482015260640161078c565b600455565b610c64612c41565b6001600160a01b0381166000908152600b602052604090205460ff16610cbb5760405162461bcd60e51b815260206004820152600c60248201526b2737ba1030b71030b236b4b760a11b604482015260640161078c565b600c54600110610d0d5760405162461bcd60e51b815260206004820152601860248201527f43616e6e6f742072656d6f7665206c6173742061646d696e0000000000000000604482015260640161078c565b6001600160a01b0381166000908152600b60205260408120805460ff191690555b600c54811015610e3357816001600160a01b0316600c8281548110610d5557610d556139d1565b6000918252602090912001546001600160a01b031603610e2157600c8054610d7f90600190613b6b565b81548110610d8f57610d8f6139d1565b600091825260209091200154600c80546001600160a01b039092169183908110610dbb57610dbb6139d1565b9060005260206000200160006101000a8154816001600160a01b0302191690836001600160a01b03160217905550600c805480610dfa57610dfa613b7e565b600082815260209020810160001990810180546001600160a01b0319169055019055610e33565b80610e2b81613b94565b915050610d2e565b506040516001600160a01b038216907fa3b62bc36326052d97ea62d63c3d60308ed4c3ea8ac079dd8499f1e9c4f80c0f90600090a250565b816002548110610e8d5760405162461bcd60e51b815260040161078c9061394a565b60008381526005602052604090206001015483906001600160a01b03163314610ef45760405162461bcd60e51b81526020600482015260196024820152784f6e6c7920636c69656e742063616e2063616c6c207468697360381b604482015260640161078c565b610efc612c9b565b610f04612bf4565b60008481526005602052604090206001600682015460ff166004811115610f2d57610f2d613417565b14610f4a5760405162461bcd60e51b815260040161078c9061397a565b6000858152600660205260409020548410610f775760405162461bcd60e51b815260040161078c906139a6565b6000858152600660205260408120805486908110610f9757610f976139d1565b6000918252602090912060069091020190506001600382015460ff166004811115610fc457610fc4613417565b1461100b5760405162461bcd60e51b8152602060048201526017602482015276135a5b195cdd1bdb99481b9bdd081cdd589b5a5d1d1959604a1b604482015260640161078c565b61101782828888612cf4565b50506110236001600055565b50505050565b80600254811061104b5760405162461bcd60e51b815260040161078c9061394a565b60008281526005602052604090206001015482906001600160a01b031633146110b25760405162461bcd60e51b81526020600482015260196024820152784f6e6c7920636c69656e742063616e2063616c6c207468697360381b604482015260640161078c565b6110ba612c9b565b6110c2612bf4565b600083815260056020526040812090600682015460ff1660048111156110ea576110ea613417565b146111375760405162461bcd60e51b815260206004820181905260248201527f43616e206f6e6c792063616e63656c20637265617465642070726f6a65637473604482015260640161078c565b60028101546001600160a01b0316156111925760405162461bcd60e51b815260206004820152601e60248201527f43616e6e6f742063616e63656c2061636365707465642070726f6a6563740000604482015260640161078c565b60068101805460ff19166003179055600181015460058201546040516001600160a01b03909216916108fc82150291906000818181858888f193505050501580156111e1573d6000803e3d6000fd5b50506111ed6001600055565b505050565b6008602052816000526040600020818154811061120e57600080fd5b90600052602060002001600091509150505481565b61122b612bf4565b6001811015801561123d575060058111155b6112895760405162461bcd60e51b815260206004820152601e60248201527f526174696e67206d757374206265206265747765656e203120616e6420350000604482015260640161078c565b6001600160a01b038216600090815260096020526040812080548392906112b1908490613b58565b90915550506001600160a01b0382166000908152600a602052604081208054916112da83613b94565b9190505550816001600160a01b03167f0f28097b4af8a01cd2999adff5da8d7f7746e0086e94c724e334d4c4a352d9ea8260405161131a91815260200190565b60405180910390a25050565b61132e612c41565b611336612e4d565b60405133907f5b65b0c1363b3003db9bcc5e1fd8805a6d6bf5bf6dc9d3431ee4494cd7d1176690600090a2565b6001600160a01b0381166000908152600a6020526040812054810361138a57506000919050565b6001600160a01b0382166000908152600a6020908152604080832054600990925290912054610a649190613bad565b60608160025481106113dd5760405162461bcd60e51b815260040161078c9061394a565b600083815260066020908152604080832080548251818502810185019093528083529193909284015b828210156115ad57838290600052602060002090600602016040518060c0016040529081600082018054611439906139e7565b80601f0160208091040260200160405190810160405280929190818152602001828054611465906139e7565b80156114b25780601f10611487576101008083540402835291602001916114b2565b820191906000526020600020905b81548152906001019060200180831161149557829003601f168201915b50505091835250506001820154602082015260028201546040820152600382015460609091019060ff1660048111156114ed576114ed613417565b60048111156114fe576114fe613417565b8152602001600482018054611512906139e7565b80601f016020809104026020016040519081016040528092919081815260200182805461153e906139e7565b801561158b5780601f106115605761010080835404028352916020019161158b565b820191906000526020600020905b81548152906001019060200180831161156e57829003601f168201915b5050505050815260200160058201548152505081526020019060010190611406565b5050505091505b50919050565b6007602052600090815260409020805460018201546002830154600384018054939492936001600160a01b0390921692916115f4906139e7565b80601f0160208091040260200160405190810160405280929190818152602001828054611620906139e7565b801561166d5780601f106116425761010080835404028352916020019161166d565b820191906000526020600020905b81548152906001019060200180831161165057829003601f168201915b5050505060048301546005840154600890940154929360ff9091169290915087565b600660205281600052604060002081815481106116ab57600080fd5b9060005260206000209060060201600091509150508060000180546116cf906139e7565b80601f01602080910402602001604051908101604052809291908181526020018280546116fb906139e7565b80156117485780601f1061171d57610100808354040283529160200191611748565b820191906000526020600020905b81548152906001019060200180831161172b57829003601f168201915b5050506001840154600285015460038601546004870180549697939692955060ff909116935090611778906139e7565b80601f01602080910402602001604051908101604052809291908181526020018280546117a4906139e7565b80156117f15780601f106117c6576101008083540402835291602001916117f1565b820191906000526020600020905b8154815290600101906020018083116117d457829003601f168201915b5050505050908060050154905086565b611809612c41565b6001600160a01b0381166000908152600b602052604090205460ff16156118655760405162461bcd60e51b815260206004820152601060248201526f20b63932b0b23c9030b71030b236b4b760811b604482015260640161078c565b6001600160a01b0381166118ad5760405162461bcd60e51b815260206004820152600f60248201526e496e76616c6964206164647265737360881b604482015260640161078c565b6001600160a01b0381166000818152600b6020526040808220805460ff19166001908117909155600c8054918201815583527fdf6966c971051c3d54ec59162606531493a51404a002842f56009d7e5cf4a8c70180546001600160a01b03191684179055517f44d6d25963f097ad14f29f06854a01f575648a1ef82f30e562ccd3889717e3399190a250565b611941612c41565b61194b6000612ea2565b565b336000908152600b602052604090205460ff168061197557506001546001600160a01b031633145b6119c15760405162461bcd60e51b815260206004820152601860248201527f4f6e6c792061646d696e2063616e2063616c6c20746869730000000000000000604482015260640161078c565b6119c9612bf4565b6003548210611a135760405162461bcd60e51b8152602060048201526016602482015275111a5cdc1d5d1948191bd95cc81b9bdd08195e1a5cdd60521b604482015260640161078c565b6000828152600760205260409020600481015460ff1615611a765760405162461bcd60e51b815260206004820152601860248201527f4469737075746520616c7265616479207265736f6c7665640000000000000000604482015260640161078c565b6064821115611abc5760405162461bcd60e51b8152602060048201526012602482015271496e76616c69642070657263656e7461676560701b604482015260640161078c565b33600090815260068201602052604090205460ff1615611b0e5760405162461bcd60e51b815260206004820152600d60248201526c105b1c9958591e481d9bdd1959609a1b604482015260640161078c565b3360009081526006820160209081526040808320805460ff1916600117905560078401909152812083905560088201805491611b4983613b94565b9091555050604051828152339084907f2e5bda224608af9bb5143c8baec4e009315fed71499cce17381bdbc0f16746369060200160405180910390a360028160080154106111ed576111ed83612ef4565b611ba2612c41565b611baa61317c565b60405133907f81990fd9a5c552b8e3677917d8a03c07678f0d2cb68f88b634aca2022e9bd19f90600090a2565b6000611be1612bf4565b6000845111611c325760405162461bcd60e51b815260206004820152601f60248201527f4174206c65617374206f6e65206d696c6573746f6e6520726571756972656400604482015260640161078c565b82518451148015611c44575081518351145b611c9c5760405162461bcd60e51b8152602060048201526024808201527f4d696c6573746f6e6520617272617973206d7573742062652073616d65206c656044820152630dccee8d60e31b606482015260840161078c565b6000805b8451811015611db3576000858281518110611cbd57611cbd6139d1565b602002602001015111611d125760405162461bcd60e51b815260206004820152601c60248201527f4d696c6573746f6e6520616d6f756e74206d757374206265203e203000000000604482015260640161078c565b42848281518110611d2557611d256139d1565b602002602001015111611d7a5760405162461bcd60e51b815260206004820152601a60248201527f446561646c696e65206d75737420626520696e20667574757265000000000000604482015260640161078c565b848181518110611d8c57611d8c6139d1565b602002602001015182611d9f9190613b58565b915080611dab81613b94565b915050611ca0565b5080341015611e045760405162461bcd60e51b815260206004820152601c60248201527f496e73756666696369656e742066756e6473206465706f736974656400000000604482015260640161078c565b6002805460009182611e1583613b94565b9091555060008181526005602052604090208181556001810180546001600160a01b0319163317905590915060038101611e4f8a82613a61565b5060048101611e5e8982613a61565b506005810183905560068101805460ff19908116909155426007830155600982018054909116600117905560005b8751811015611fdc5760006040518060c001604052808a8481518110611eb457611eb46139d1565b60200260200101518152602001898481518110611ed357611ed36139d1565b60200260200101518152602001888481518110611ef257611ef26139d1565b6020026020010151815260200160006004811115611f1257611f12613417565b8152604080516020818101835260008083528185019290925292820181905287815260068084529181208054600181018255908252929020835193945084939290910201908190611f639082613a61565b50602082015181600101556040820151816002015560608201518160030160006101000a81548160ff02191690836004811115611fa257611fa2613417565b021790555060808201516004820190611fbb9082613a61565b5060a082015181600501555050508080611fd490613b94565b915050611e8c565b50336000908152600860209081526040822080546001810182559083529120018290553483101561203f57336108fc6120158534613b6b565b6040518115909202916000818181858888f1935050505015801561203d573d6000803e3d6000fd5b505b604051838152339083907f1b9d0946c0a6f3b3a57782ad25a4553bd5bcf1f1a252068eafc757670aad573a9060200160405180910390a3817f26679fa1f3868c950e9362f1106cf73f3318de0280e0411a3c68e4b463eadd4f846040516120a891815260200190565b60405180910390a250979650505050505050565b8160025481106120de5760405162461bcd60e51b815260040161078c9061394a565b6120e6612c9b565b6120ee612bf4565b60008381526005602052604090206001600682015460ff16600481111561211757612117613417565b146121345760405162461bcd60e51b815260040161078c9061397a565b60008481526006602052604090205483106121615760405162461bcd60e51b815260040161078c906139a6565b6000848152600660205260408120805485908110612181576121816139d1565b6000918252602090912060069091020190506001600382015460ff1660048111156121ae576121ae613417565b146121f55760405162461bcd60e51b8152602060048201526017602482015276135a5b195cdd1bdb99481b9bdd081cdd589b5a5d1d1959604a1b604482015260640161078c565b62093a8081600501546122089190613b58565b4210156122615760405162461bcd60e51b815260206004820152602160248201527f4175746f2d617070726f76616c2074696d656f7574206e6f74207265616368656044820152601960fa1b606482015260840161078c565b847f03669c7e378020c8180f89a880085f0dab0f01dbd8efc1bdbba0c89e29b4b8e58560405161229391815260200190565b60405180910390a26111e182828787612cf4565b60008360025481106122cb5760405162461bcd60e51b815260040161078c9061394a565b60008581526005602052604090206001015485906001600160a01b031633148061230e57506000818152600560205260409020600201546001600160a01b031633145b61236a5760405162461bcd60e51b815260206004820152602760248201527f4f6e6c792070726f6a656374207061727469636970616e74732063616e2063616044820152666c6c207468697360c81b606482015260840161078c565b612372612bf4565b60008681526005602052604090206001600682015460ff16600481111561239b5761239b613417565b146123b85760405162461bcd60e51b815260040161078c9061397a565b60008781526006602052604090205486106123e55760405162461bcd60e51b815260040161078c906139a6565b6000878152600660205260408120805488908110612405576124056139d1565b6000918252602090912060069091020190506001600382015460ff16600481111561243257612432613417565b1461248d5760405162461bcd60e51b815260206004820152602560248201527f43616e206f6e6c792064697370757465207375626d6974746564206d696c6573604482015264746f6e657360d81b606482015260840161078c565b6203f48081600501546124a09190613b58565b4211156124e85760405162461bcd60e51b8152602060048201526016602482015275111a5cdc1d5d19481c195c9a5bd908195e1c1a5c995960521b604482015260640161078c565b60038054600091826124f983613b94565b9091555060008181526007602052604090208a8155600181018a90556002810180546001600160a01b031916331790559091506003810161253a8982613a61565b506004818101805460ff199081169091554260058401556000600884015560068601805482168317905560038501805490911690911790556040513381528a9083907f83201991c75b30e493678d0543bdbd02d6a194a5a0dda31490a5fe09e9f0a2209060200160405180910390a35098975050505050505050565b60008060608060035485106126065760405162461bcd60e51b8152602060048201526016602482015275111a5cdc1d5d1948191bd95cc81b9bdd08195e1a5cdd60521b604482015260640161078c565b6000858152600760205260408120600c5490919067ffffffffffffffff8111156126325761263261328f565b60405190808252806020026020018201604052801561265b578160200160208202803683370190505b50600c5490915060009067ffffffffffffffff81111561267d5761267d61328f565b6040519080825280602002602001820160405280156126a6578160200160208202803683370190505b5090506000805b600c54811015612797576000600c82815481106126cc576126cc6139d1565b60009182526020808320909101546001600160a01b03168083526006890190915260409091205490915060ff16156127845780858481518110612711576127116139d1565b60200260200101906001600160a01b031690816001600160a01b031681525050856007016000826001600160a01b03166001600160a01b031681526020019081526020016000205484848151811061276b5761276b6139d1565b60209081029190910101528261278081613b94565b9350505b508061278f81613b94565b9150506126ad565b508067ffffffffffffffff8111156127b1576127b161328f565b6040519080825280602002602001820160405280156127da578160200160208202803683370190505b5095508067ffffffffffffffff8111156127f6576127f661328f565b60405190808252806020026020018201604052801561281f578160200160208202803683370190505b50945060005b818110156128c25783818151811061283f5761283f6139d1565b6020026020010151878281518110612859576128596139d1565b60200260200101906001600160a01b031690816001600160a01b03168152505082818151811061288b5761288b6139d1565b60200260200101518682815181106128a5576128a56139d1565b6020908102919091010152806128ba81613b94565b915050612825565b50505060088201546004909201549195505060ff1692509193509193565b6060600c80548060200260200160405190810160405280929190818152602001828054801561293857602002820191906000526020600020905b81546001600160a01b0316815260019091019060200180831161291a575b5050505050905090565b6001600160a01b0381166000908152600860209081526040918290208054835181840281018401909452808452606093928301828280156129a257602002820191906000526020600020905b81548152602001906001019080831161298e575b50505050509050919050565b6129b6612c41565b6001600160a01b038116612a1b5760405162461bcd60e51b815260206004820152602660248201527f4f776e61626c653a206e6577206f776e657220697320746865207a65726f206160448201526564647265737360d01b606482015260840161078c565b612a2481612ea2565b50565b806002548110612a495760405162461bcd60e51b815260040161078c9061394a565b612a51612bf4565b600082815260056020526040812090600682015460ff166004811115612a7957612a79613417565b14612abe5760405162461bcd60e51b815260206004820152601560248201527450726f6a656374206e6f7420617661696c61626c6560581b604482015260640161078c565b60028101546001600160a01b031615612b195760405162461bcd60e51b815260206004820152601860248201527f50726f6a65637420616c72656164792061636365707465640000000000000000604482015260640161078c565b60018101546001600160a01b03163303612b755760405162461bcd60e51b815260206004820181905260248201527f436c69656e742063616e6e6f7420616363657074206f776e2070726f6a656374604482015260640161078c565b6002810180546001600160a01b0319163390811790915560068201805460ff19166001908117909155426008808501919091556000838152602091825260408082208054948501815582529181209092018690555185917f3afbe557720c657b357055519b7971ffa35cd23fd38a67024de49537d7b20e4091a3505050565b600154600160a01b900460ff161561194b5760405162461bcd60e51b815260206004820152601060248201526f14185d5cd8589b194e881c185d5cd95960821b604482015260640161078c565b6001546001600160a01b0316331461194b5760405162461bcd60e51b815260206004820181905260248201527f4f776e61626c653a2063616c6c6572206973206e6f7420746865206f776e6572604482015260640161078c565b600260005403612ced5760405162461bcd60e51b815260206004820152601f60248201527f5265656e7472616e637947756172643a207265656e7472616e742063616c6c00604482015260640161078c565b6002600055565b60038301805460ff191660021790556004546001840154600091606491612d1b9190613bcf565b612d259190613bad565b90506000818560010154612d399190613b6b565b60028701546040519192506001600160a01b03169082156108fc029083906000818181858888f19350505050158015612d76573d6000803e3d6000fd5b506001546040516001600160a01b039091169083156108fc029084906000818181858888f19350505050158015612db1573d6000803e3d6000fd5b50837f939da3b627c123c81fe5aacebf925163337a0d4f8a03724640618078cad2489484604051612de491815260200190565b60405180910390a2604080518481526020810183905285917f3c70b1e8034b5738ec77fbfdaa4d28906a0b3160018d67a2dc7b534e53e33fe0910160405180910390a2612e30846131bf565b15612e455760068601805460ff191660021790555b505050505050565b612e5561323f565b6001805460ff60a01b191690557f5db9ee0a495bf2e6ff9c91a7834c1ba4fdd244a5e8aa4e537bd38aeae4b073aa335b6040516001600160a01b03909116815260200160405180910390a1565b600180546001600160a01b038381166001600160a01b0319831681179093556040519116919082907f8be0079c531659141344cd1fd0a4f28419497f9722a3daafe3b4186f6b6457e090600090a35050565b612efc612c9b565b6000818152600760205260409020600481015460ff1615612f525760405162461bcd60e51b815260206004820152601060248201526f105b1c9958591e481c995cdbdb1d995960821b604482015260640161078c565b60008060005b600c54811015612ff1576000600c8281548110612f7757612f776139d1565b60009182526020808320909101546001600160a01b03168083526006880190915260409091205490915060ff1615612fde576001600160a01b0381166000908152600786016020526040902054612fce9085613b58565b935082612fda81613b94565b9350505b5080612fe981613b94565b915050612f58565b506000612ffe8284613bad565b84546001860154600082815260056020908152604080832060069092528220805495965093949293909284908110613038576130386139d1565b906000526020600020906006020190506000606486836001015461305c9190613bcf565b6130669190613bad565b9050600081836001015461307a9190613b6b565b905081156130c05760028401546040516001600160a01b039091169083156108fc029084906000818181858888f193505050501580156130be573d6000803e3d6000fd5b505b80156131045760018401546040516001600160a01b039091169082156108fc029083906000818181858888f19350505050158015613102573d6000803e3d6000fd5b505b60048a01805460ff1990811660019081179092556003850180548216600217905560068601805490911690911790556040518781528b907fb4121f1f91a696a3fc75f6d151f3c9865abffa0738bda595e71c381c02af2faa9060200160405180910390a250505050505050505050612a246001600055565b613184612bf4565b6001805460ff60a01b1916600160a01b1790557f62e78cea01bee320cd4e420270b5ea74000d11b0c9f74754ebdbfc544b05a258612e853390565b6000818152600660205260408120815b81548110156132355760028282815481106131ec576131ec6139d1565b600091825260209091206003600690920201015460ff16600481111561321457613214613417565b14613223575060009392505050565b8061322d81613b94565b9150506131cf565b5060019392505050565b600154600160a01b900460ff1661194b5760405162461bcd60e51b815260206004820152601460248201527314185d5cd8589b194e881b9bdd081c185d5cd95960621b604482015260640161078c565b634e487b7160e01b600052604160045260246000fd5b604051601f8201601f1916810167ffffffffffffffff811182821017156132ce576132ce61328f565b604052919050565b600082601f8301126132e757600080fd5b813567ffffffffffffffff8111156133015761330161328f565b613314601f8201601f19166020016132a5565b81815284602083860101111561332957600080fd5b816020850160208301376000918101602001919091529392505050565b60008060006060848603121561335b57600080fd5b8335925060208401359150604084013567ffffffffffffffff81111561338057600080fd5b61338c868287016132d6565b9150509250925092565b600080604083850312156133a957600080fd5b50508035926020909101359150565b6000602082840312156133ca57600080fd5b5035919050565b6000815180845260005b818110156133f7576020818501810151868301820152016133db565b506000602082860101526020601f19601f83011685010191505092915050565b634e487b7160e01b600052602160045260246000fd5b60058110612a2457634e487b7160e01b600052602160045260246000fd5b8a81526001600160a01b038a81166020830152891660408201526101406060820181905260009061347e8382018b6133d1565b90508281036080840152613492818a6133d1565b9150508660a08301526134a48661342d565b8560c08301528460e0830152836101008301528215156101208301529b9a5050505050505050505050565b80356001600160a01b03811681146134e657600080fd5b919050565b6000602082840312156134fd57600080fd5b613506826134cf565b9392505050565b6000806040838503121561352057600080fd5b613529836134cf565b946020939093013593505050565b60006020808301818452808551808352604092508286019150828160051b87010184880160005b838110156135e357603f19898403018552815160c08151818652613584828701826133d1565b915050888201518986015287820151888601526060808301516135a68161342d565b90860152608082810151868303828801526135c183826133d1565b60a094850151979094019690965250509487019492509086019060010161355e565b509098975050505050505050565b87815286602082015260018060a01b038616604082015260e06060820152600061361e60e08301876133d1565b94151560808301525060a081019290925260c090910152949350505050565b60c08152600061365060c08301896133d1565b8760208401528660408401526136658661342d565b856060840152828103608084015261367d81866133d1565b9150508260a0830152979650505050505050565b600067ffffffffffffffff8211156136ab576136ab61328f565b5060051b60200190565b600082601f8301126136c657600080fd5b813560206136db6136d683613691565b6132a5565b82815260059290921b840181019181810190868411156136fa57600080fd5b8286015b8481101561373a57803567ffffffffffffffff81111561371e5760008081fd5b61372c8986838b01016132d6565b8452509183019183016136fe565b509695505050505050565b600082601f83011261375657600080fd5b813560206137666136d683613691565b82815260059290921b8401810191818101908684111561378557600080fd5b8286015b8481101561373a5780358352918301918301613789565b600080600080600060a086880312156137b857600080fd5b853567ffffffffffffffff808211156137d057600080fd5b6137dc89838a016132d6565b965060208801359150808211156137f257600080fd5b6137fe89838a016132d6565b9550604088013591508082111561381457600080fd5b61382089838a016136b5565b9450606088013591508082111561383657600080fd5b61384289838a01613745565b9350608088013591508082111561385857600080fd5b5061386588828901613745565b9150509295509295909350565b600081518084526020808501945080840160005b838110156138ab5781516001600160a01b031687529582019590820190600101613886565b509495945050505050565b600081518084526020808501945080840160005b838110156138ab578151875295820195908201906001016138ca565b84815283151560208201526080604082015260006139076080830185613872565b828103606084015261391981856138b6565b979650505050505050565b6020815260006135066020830184613872565b60208152600061350660208301846138b6565b602080825260169082015275141c9bda9958dd08191bd95cc81b9bdd08195e1a5cdd60521b604082015260600190565b60208082526012908201527150726f6a656374206e6f742061637469766560701b604082015260600190565b602080825260119082015270496e76616c6964206d696c6573746f6e6560781b604082015260600190565b634e487b7160e01b600052603260045260246000fd5b600181811c908216806139fb57607f821691505b6020821081036115b457634e487b7160e01b600052602260045260246000fd5b601f8211156111ed57600081815260208120601f850160051c81016020861015613a425750805b601f850160051c820191505b81811015612e4557828155600101613a4e565b815167ffffffffffffffff811115613a7b57613a7b61328f565b613a8f81613a8984546139e7565b84613a1b565b602080601f831160018114613ac45760008415613aac5750858301515b600019600386901b1c1916600185901b178555612e45565b600085815260208120601f198616915b82811015613af357888601518255948401946001909101908401613ad4565b5085821015613b115787850151600019600388901b60f8161c191681555b5050505050600190811b01905550565b828152604060208201526000613b3a60408301846133d1565b949350505050565b634e487b7160e01b600052601160045260246000fd5b80820180821115610a6457610a64613b42565b81810381811115610a6457610a64613b42565b634e487b7160e01b600052603160045260246000fd5b600060018201613ba657613ba6613b42565b5060010190565b600082613bca57634e487b7160e01b600052601260045260246000fd5b500490565b8082028115828204841417610a6457610a64613b4256fea2646970667358221220ce9f7f7ef9b9cf21c490e18b2dc49ac4ca80615456f74cd0595542d5408e7c8c64736f6c63430008130033",
  "linkReferences": {},
  "deployedLinkReferences": {}
}