{
  "_format": "hh-sol-artifact-1",
  "contractName": "ProjectEscrow",
  "sourceName": "contracts/ProjectEscrow.sol",
  "abi": [
    {
      "anonymous": false,
      "inputs": [
        {
          "indexed": true,
          "internalType": "uint256",
          "name": "disputeId",
          "type": "uint256"
        },
        {
          "indexed": true,
          "internalType": "uint256",
          "name": "projectId",
          "type": "uint256"
        },
        {
          "indexed": false,
          "internalType": "address",
          "name": "initiator",
          "type": "address"
        }
      ],
      "name": "DisputeRaised",
      "type": "event"
    },
    {
      "anonymous": false,
      "inputs": [
        {
          "indexed": true,
          "internalType": "uint256",
          "name": "disputeId",
          "type": "uint256"
        },
        {
          "indexed": false,
          "internalType": "uint256",
          "name": "percentageToFreelancer",
          "type": "uint256"
        }
      ],
      "name": "DisputeResolved",
      "type": "event"
    },
    {
      "anonymous": false,
      "inputs": [
        {
          "indexed": true,
          "internalType": "uint256",
          "name": "projectId",
          "type": "uint256"
        },
        {
          "indexed": false,
          "internalType": "uint256",
          "name": "amount",
          "type": "uint256"
        }
      ],
      "name": "FundsDeposited",
      "type": "event"
    },
    {
      "anonymous": false,
      "inputs": [
        {
          "indexed": true,
          "internalType": "uint256",
          "name": "projectId",
          "type": "uint256"
        },
        {
          "indexed": false,
          "internalType": "uint256",
          "name": "milestoneId",
          "type": "uint256"
        }
      ],
      "name": "MilestoneApproved",
      "type": "event"
    },
    {
      "anonymous": false,
      "inputs": [
        {
          "indexed": true,
          "internalType": "uint256",
          "name": "projectId",
          "type": "uint256"
        },
        {
          "indexed": false,
          "internalType": "uint256",
          "name": "milestoneId",
          "type": "uint256"
        },
        {
          "indexed": false,
          "internalType": "string",
          "name": "deliverableHash",
          "type": "string"
        }
      ],
      "name": "MilestoneSubmitted",
      "type": "event"
    },
    {
      "anonymous": false,
      "inputs": [
        {
          "indexed": true,
          "internalType": "address",
          "name": "previousOwner",
          "type": "address"
        },
        {
          "indexed": true,
          "internalType": "address",
          "name": "newOwner",
          "type": "address"
        }
      ],
      "name": "OwnershipTransferred",
      "type": "event"
    },
    {
      "anonymous": false,
      "inputs": [
        {
          "indexed": true,
          "internalType": "uint256",
          "name": "projectId",
          "type": "uint256"
        },
        {
          "indexed": false,
          "internalType": "uint256",
          "name": "milestoneId",
          "type": "uint256"
        },
        {
          "indexed": false,
          "internalType": "uint256",
          "name": "amount",
          "type": "uint256"
        }
      ],
      "name": "PaymentReleased",
      "type": "event"
    },
    {
      "anonymous": false,
      "inputs": [
        {
          "indexed": true,
          "internalType": "uint256",
          "name": "projectId",
          "type": "uint256"
        },
        {
          "indexed": true,
          "internalType": "address",
          "name": "freelancer",
          "type": "address"
        }
      ],
      "name": "ProjectAccepted",
      "type": "event"
    },
    {
      "anonymous": false,
      "inputs": [
        {
          "indexed": true,
          "internalType": "uint256",
          "name": "projectId",
          "type": "uint256"
        },
        {
          "indexed": true,
          "internalType": "address",
          "name": "client",
          "type": "address"
        },
        {
          "indexed": false,
          "internalType": "uint256",
          "name": "totalAmount",
          "type": "uint256"
        }
      ],
      "name": "ProjectCreated",
      "type": "event"
    },
    {
      "anonymous": false,
      "inputs": [
        {
          "indexed": true,
          "internalType": "address",
          "name": "user",
          "type": "address"
        },
        {
          "indexed": false,
          "internalType": "uint256",
          "name": "rating",
          "type": "uint256"
        }
      ],
      "name": "UserRated",
      "type": "event"
    },
    {
      "inputs": [],
      "name": "DISPUTE_TIMEOUT",
      "outputs": [
        {
          "internalType": "uint256",
          "name": "",
          "type": "uint256"
        }
      ],
      "stateMutability": "view",
      "type": "function"
    },
    {
      "inputs": [
        {
          "internalType": "uint256",
          "name": "_projectId",
          "type": "uint256"
        }
      ],
      "name": "acceptProject",
      "outputs": [],
      "stateMutability": "nonpayable",
      "type": "function"
    },
    {
      "inputs": [
        {
          "internalType": "uint256",
          "name": "_projectId",
          "type": "uint256"
        },
        {
          "internalType": "uint256",
          "name": "_milestoneId",
          "type": "uint256"
        }
      ],
      "name": "approveMilestone",
      "outputs": [],
      "stateMutability": "nonpayable",
      "type": "function"
    },
    {
      "inputs": [
        {
          "internalType": "uint256",
          "name": "_projectId",
          "type": "uint256"
        }
      ],
      "name": "cancelProject",
      "outputs": [],
      "stateMutability": "nonpayable",
      "type": "function"
    },
    {
      "inputs": [
        {
          "internalType": "string",
          "name": "_title",
          "type": "string"
        },
        {
          "internalType": "string",
          "name": "_descriptionHash",
          "type": "string"
        },
        {
          "internalType": "string[]",
          "name": "_milestoneDescriptions",
          "type": "string[]"
        },
        {
          "internalType": "uint256[]",
          "name": "_milestoneAmounts",
          "type": "uint256[]"
        },
        {
          "internalType": "uint256[]",
          "name": "_milestoneDeadlines",
          "type": "uint256[]"
        }
      ],
      "name": "createProject",
      "outputs": [
        {
          "internalType": "uint256",
          "name": "",
          "type": "uint256"
        }
      ],
      "stateMutability": "payable",
      "type": "function"
    },
    {
      "inputs": [],
      "name": "disputeCounter",
      "outputs": [
        {
          "internalType": "uint256",
          "name": "",
          "type": "uint256"
        }
      ],
      "stateMutability": "view",
      "type": "function"
    },
    {
      "inputs": [
        {
          "internalType": "uint256",
          "name": "",
          "type": "uint256"
        }
      ],
      "name": "disputes",
      "outputs": [
        {
          "internalType": "uint256",
          "name": "projectId",
          "type": "uint256"
        },
        {
          "internalType": "uint256",
          "name": "milestoneId",
          "type": "uint256"
        },
        {
          "internalType": "address",
          "name": "initiator",
          "type": "address"
        },
        {
          "internalType": "string",
          "name": "reason",
          "type": "string"
        },
        {
          "internalType": "bool",
          "name": "isResolved",
          "type": "bool"
        },
        {
          "internalType": "uint256",
          "name": "createdAt",
          "type": "uint256"
        }
      ],
      "stateMutability": "view",
      "type": "function"
    },
    {
      "inputs": [],
      "name": "getContractBalance",
      "outputs": [
        {
          "internalType": "uint256",
          "name": "",
          "type": "uint256"
        }
      ],
      "stateMutability": "view",
      "type": "function"
    },
    {
      "inputs": [
        {
          "internalType": "uint256",
          "name": "_projectId",
          "type": "uint256"
        }
      ],
      "name": "getProjectMilestones",
      "outputs": [
        {
          "components": [
            {
              "internalType": "string",
              "name": "description",
              "type": "string"
            },
            {
              "internalType": "uint256",
              "name": "amount",
              "type": "uint256"
            },
            {
              "internalType": "uint256",
              "name": "deadline",
              "type": "uint256"
            },
            {
              "internalType": "enum ProjectEscrow.MilestoneStatus",
              "name": "status",
              "type": "uint8"
            },
            {
              "internalType": "string",
              "name": "deliverableHash",
              "type": "string"
            },
            {
              "internalType": "uint256",
              "name": "submittedAt",
              "type": "uint256"
            }
          ],
          "internalType": "struct ProjectEscrow.Milestone[]",
          "name": "",
          "type": "tuple[]"
        }
      ],
      "stateMutability": "view",
      "type": "function"
    },
    {
      "inputs": [
        {
          "internalType": "address",
          "name": "_user",
          "type": "address"
        }
      ],
      "name": "getUserProjects",
      "outputs": [
        {
          "internalType": "uint256[]",
          "name": "",
          "type": "uint256[]"
        }
      ],
      "stateMutability": "view",
      "type": "function"
    },
    {
      "inputs": [
        {
          "internalType": "address",
          "name": "_user",
          "type": "address"
        }
      ],
      "name": "getUserRating",
      "outputs": [
        {
          "internalType": "uint256",
          "name": "",
          "type": "uint256"
        }
      ],
      "stateMutability": "view",
      "type": "function"
    },
    {
      "inputs": [],
      "name": "owner",
      "outputs": [
        {
          "internalType": "address",
          "name": "",
          "type": "address"
        }
      ],
      "stateMutability": "view",
      "type": "function"
    },
    {
      "inputs": [],
      "name": "platformFeePercent",
      "outputs": [
        {
          "internalType": "uint256",
          "name": "",
          "type": "uint256"
        }
      ],
      "stateMutability": "view",
      "type": "function"
    },
    {
      "inputs": [],
      "name": "projectCounter",
      "outputs": [
        {
          "internalType": "uint256",
          "name": "",
          "type": "uint256"
        }
      ],
      "stateMutability": "view",
      "type": "function"
    },
    {
      "inputs": [
        {
          "internalType": "uint256",
          "name": "",
          "type": "uint256"
        },
        {
          "internalType": "uint256",
          "name": "",
          "type": "uint256"
        }
      ],
      "name": "projectMilestones",
      "outputs": [
        {
          "internalType": "string",
          "name": "description",
          "type": "string"
        },
        {
          "internalType": "uint256",
          "name": "amount",
          "type": "uint256"
        },
        {
          "internalType": "uint256",
          "name": "deadline",
          "type": "uint256"
        },
        {
          "internalType": "enum ProjectEscrow.MilestoneStatus",
          "name": "status",
          "type": "uint8"
        },
        {
          "internalType": "string",
          "name": "deliverableHash",
          "type": "string"
        },
        {
          "internalType": "uint256",
          "name": "submittedAt",
          "type": "uint256"
        }
      ],
      "stateMutability": "view",
      "type": "function"
    },
    {
      "inputs": [
        {
          "internalType": "uint256",
          "name": "",
          "type": "uint256"
        }
      ],
      "name": "projects",
      "outputs": [
        {
          "internalType": "uint256",
          "name": "id",
          "type": "uint256"
        },
        {
          "internalType": "address payable",
          "name": "client",
          "type": "address"
        },
        {
          "internalType": "address payable",
          "name": "freelancer",
          "type": "address"
        },
        {
          "internalType": "string",
          "name": "title",
          "type": "string"
        },
        {
          "internalType": "string",
          "name": "descriptionHash",
          "type": "string"
        },
        {
          "internalType": "uint256",
          "name": "totalAmount",
          "type": "uint256"
        },
        {
          "internalType": "enum ProjectEscrow.ProjectStatus",
          "name": "status",
          "type": "uint8"
        },
        {
          "internalType": "uint256",
          "name": "createdAt",
          "type": "uint256"
        },
        {
          "internalType": "uint256",
          "name": "acceptedAt",
          "type": "uint256"
        },
        {
          "internalType": "bool",
          "name": "fundsDeposited",
          "type": "bool"
        }
      ],
      "stateMutability": "view",
      "type": "function"
    },
    {
      "inputs": [
        {
          "internalType": "uint256",
          "name": "_projectId",
          "type": "uint256"
        },
        {
          "internalType": "uint256",
          "name": "_milestoneId",
          "type": "uint256"
        },
        {
          "internalType": "string",
          "name": "_reason",
          "type": "string"
        }
      ],
      "name": "raiseDispute",
      "outputs": [
        {
          "internalType": "uint256",
          "name": "",
          "type": "uint256"
        }
      ],
      "stateMutability": "nonpayable",
      "type": "function"
    },
    {
      "inputs": [
        {
          "internalType": "address",
          "name": "_user",
          "type": "address"
        },
        {
          "internalType": "uint256",
          "name": "_rating",
          "type": "uint256"
        }
      ],
      "name": "rateUser",
      "outputs": [],
      "stateMutability": "nonpayable",
      "type": "function"
    },
    {
      "inputs": [],
      "name": "renounceOwnership",
      "outputs": [],
      "stateMutability": "nonpayable",
      "type": "function"
    },
    {
      "inputs": [
        {
          "internalType": "uint256",
          "name": "_disputeId",
          "type": "uint256"
        },
        {
          "internalType": "uint256",
          "name": "_percentageToFreelancer",
          "type": "uint256"
        }
      ],
      "name": "resolveDispute",
      "outputs": [],
      "stateMutability": "nonpayable",
      "type": "function"
    },
    {
      "inputs": [
        {
          "internalType": "uint256",
          "name": "_feePercent",
          "type": "uint256"
        }
      ],
      "name": "setPlatformFee",
      "outputs": [],
      "stateMutability": "nonpayable",
      "type": "function"
    },
    {
      "inputs": [
        {
          "internalType": "uint256",
          "name": "_projectId",
          "type": "uint256"
        },
        {
          "internalType": "uint256",
          "name": "_milestoneId",
          "type": "uint256"
        },
        {
          "internalType": "string",
          "name": "_deliverableHash",
          "type": "string"
        }
      ],
      "name": "submitMilestone",
      "outputs": [],
      "stateMutability": "nonpayable",
      "type": "function"
    },
    {
      "inputs": [
        {
          "internalType": "address",
          "name": "newOwner",
          "type": "address"
        }
      ],
      "name": "transferOwnership",
      "outputs": [],
      "stateMutability": "nonpayable",
      "type": "function"
    },
    {
      "inputs": [
        {
          "internalType": "address",
          "name": "",
          "type": "address"
        },
        {
          "internalType": "uint256",
          "name": "",
          "type": "uint256"
        }
      ],
      "name": "userProjects",
      "outputs": [
        {
          "internalType": "uint256",
          "name": "",
          "type": "uint256"
        }
      ],
      "stateMutability": "view",
      "type": "function"
    },
    {
      "inputs": [
        {
          "internalType": "address",
          "name": "",
          "type": "address"
        }
      ],
      "name": "userRatingCount",
      "outputs": [
        {
          "internalType": "uint256",
          "name": "",
          "type": "uint256"
        }
      ],
      "stateMutability": "view",
      "type": "function"
    },
    {
      "inputs": [
        {
          "internalType": "address",
          "name": "",
          "type": "address"
        }
      ],
      "name": "userRatings",
      "outputs": [
        {
          "internalType": "uint256",
          "name": "",
          "type": "uint256"
        }
      ],
      "stateMutability": "view",
      "type": "function"
    }
  ],
  "bytecode": "0x6080604052600260045534801561001557600080fd5b50600160005561002433610029565b61007b565b600180546001600160a01b038381166001600160a01b0319831681179093556040519116919082907f8be0079c531659141344cd1fd0a4f28419497f9722a3daafe3b4186f6b6457e090600090a35050565b612b2b806200008b6000396000f3fe6080604052600436106101815760003560e01c80636f9fb98a116100d15780639508f20a1161008a578063e32e723c11610064578063e32e723c14610486578063f2fde38b146104b3578063f8a518ed146104d3578063fd1d5ea9146104e957600080fd5b80639508f20a14610433578063bdc84ac314610446578063c290dd711461046657600080fd5b80636f9fb98a1461038a578063715018a61461039d5780637d36f4d3146103b25780638c639a85146103c85780638da5cb5b146103de578063900f58fc1461040657600080fd5b80633d4effc41161013e57806352766d801161011857806352766d80146102cc578063564a565d146102f9578063656f35221461032b5780636cb0adba1461035857600080fd5b80633d4effc414610275578063460168c314610295578063486265c6146102b557600080fd5b80630390e07a14610186578063107046bd146101a857806312e8e2c3146101e757806320913da51461020757806324941147146102275780632fa9c00714610247575b600080fd5b34801561019257600080fd5b506101a66101a1366004612301565b610509565b005b3480156101b457600080fd5b506101c86101c3366004612351565b61075b565b6040516101de9a999897969594939291906123e4565b60405180910390f35b3480156101f357600080fd5b506101a6610202366004612351565b6108cd565b34801561021357600080fd5b506101a6610222366004612468565b610923565b34801561023357600080fd5b506101a6610242366004612351565b610c26565b34801561025357600080fd5b506102676102623660046124a6565b610de7565b6040519081526020016101de565b34801561028157600080fd5b506101a66102903660046124a6565b610e18565b3480156102a157600080fd5b506102676102b03660046124d0565b610f13565b3480156102c157600080fd5b506102676203f48081565b3480156102d857600080fd5b506102ec6102e7366004612351565b610f6f565b6040516101de91906124f2565b34801561030557600080fd5b50610319610314366004612351565b611170565b6040516101de969594939291906125ac565b34801561033757600080fd5b506102676103463660046124d0565b600a6020526000908152604090205481565b34801561036457600080fd5b50610378610373366004612468565b61123d565b6040516101de969594939291906125ee565b34801561039657600080fd5b5047610267565b3480156103a957600080fd5b506101a66113af565b3480156103be57600080fd5b5061026760035481565b3480156103d457600080fd5b5061026760045481565b3480156103ea57600080fd5b506001546040516001600160a01b0390911681526020016101de565b34801561041257600080fd5b506102676104213660046124d0565b60096020526000908152604090205481565b610267610441366004612751565b6113c3565b34801561045257600080fd5b506101a6610461366004612468565b61189f565b34801561047257600080fd5b50610267610481366004612301565b611b1b565b34801561049257600080fd5b506104a66104a13660046124d0565b611e1b565b6040516101de9190612823565b3480156104bf57600080fd5b506101a66104ce3660046124d0565b611e87565b3480156104df57600080fd5b5061026760025481565b3480156104f557600080fd5b506101a6610504366004612351565b611f00565b8260025481106105345760405162461bcd60e51b815260040161052b90612867565b60405180910390fd5b60008481526005602052604090206002015484906001600160a01b0316331461059f5760405162461bcd60e51b815260206004820152601d60248201527f4f6e6c7920667265656c616e6365722063616e2063616c6c2074686973000000604482015260640161052b565b60008581526005602052604090206001600682015460ff1660048111156105c8576105c86123b0565b146105e55760405162461bcd60e51b815260040161052b90612897565b60008681526006602052604090205485106106125760405162461bcd60e51b815260040161052b906128c3565b6000868152600660205260408120805487908110610632576106326128ee565b6000918252602082206006909102019150600382015460ff16600481111561065c5761065c6123b0565b146106a15760405162461bcd60e51b81526020600482015260156024820152744d696c6573746f6e65206e6f742070656e64696e6760581b604482015260640161052b565b60008551116106f25760405162461bcd60e51b815260206004820152601960248201527f44656c6976657261626c65206861736820726571756972656400000000000000604482015260640161052b565b60038101805460ff191660011790556004810161070f8682612986565b5042600582015560405187907f556e3b296d5e8c8bab27684b52ae96905507befd2d188ce6f4453a6717dd9c009061074a9089908990612a46565b60405180910390a250505050505050565b600560205260009081526040902080546001820154600283015460038401805493946001600160a01b0393841694939092169261079790612904565b80601f01602080910402602001604051908101604052809291908181526020018280546107c390612904565b80156108105780601f106107e557610100808354040283529160200191610810565b820191906000526020600020905b8154815290600101906020018083116107f357829003601f168201915b50505050509080600401805461082590612904565b80601f016020809104026020016040519081016040528092919081815260200182805461085190612904565b801561089e5780601f106108735761010080835404028352916020019161089e565b820191906000526020600020905b81548152906001019060200180831161088157829003601f168201915b50505060058401546006850154600786015460088701546009909701549596929560ff9283169550909350168a565b6108d56120c5565b600a81111561091e5760405162461bcd60e51b81526020600482015260156024820152744665652063616e6e6f74206578636565642031302560581b604482015260640161052b565b600455565b8160025481106109455760405162461bcd60e51b815260040161052b90612867565b60008381526005602052604090206001015483906001600160a01b031633146109ac5760405162461bcd60e51b81526020600482015260196024820152784f6e6c7920636c69656e742063616e2063616c6c207468697360381b604482015260640161052b565b6109b461211f565b60008481526005602052604090206001600682015460ff1660048111156109dd576109dd6123b0565b146109fa5760405162461bcd60e51b815260040161052b90612897565b6000858152600660205260409020548410610a275760405162461bcd60e51b815260040161052b906128c3565b6000858152600660205260408120805486908110610a4757610a476128ee565b6000918252602090912060069091020190506001600382015460ff166004811115610a7457610a746123b0565b14610ac15760405162461bcd60e51b815260206004820152601760248201527f4d696c6573746f6e65206e6f74207375626d6974746564000000000000000000604482015260640161052b565b60038101805460ff191660021790556004546001820154600091606491610ae89190612a7d565b610af29190612a94565b90506000818360010154610b069190612ab6565b60028501546040519192506001600160a01b03169082156108fc029083906000818181858888f19350505050158015610b43573d6000803e3d6000fd5b506001546040516001600160a01b039091169083156108fc029084906000818181858888f19350505050158015610b7e573d6000803e3d6000fd5b50877f939da3b627c123c81fe5aacebf925163337a0d4f8a03724640618078cad2489488604051610bb191815260200190565b60405180910390a2604080518881526020810183905289917f3c70b1e8034b5738ec77fbfdaa4d28906a0b3160018d67a2dc7b534e53e33fe0910160405180910390a2610bfd88612178565b15610c125760068401805460ff191660021790555b50505050610c206001600055565b50505050565b806002548110610c485760405162461bcd60e51b815260040161052b90612867565b60008281526005602052604090206001015482906001600160a01b03163314610caf5760405162461bcd60e51b81526020600482015260196024820152784f6e6c7920636c69656e742063616e2063616c6c207468697360381b604482015260640161052b565b610cb761211f565b600083815260056020526040812090600682015460ff166004811115610cdf57610cdf6123b0565b14610d2c5760405162461bcd60e51b815260206004820181905260248201527f43616e206f6e6c792063616e63656c20637265617465642070726f6a65637473604482015260640161052b565b60028101546001600160a01b031615610d875760405162461bcd60e51b815260206004820152601e60248201527f43616e6e6f742063616e63656c2061636365707465642070726f6a6563740000604482015260640161052b565b60068101805460ff19166003179055600181015460058201546040516001600160a01b03909216916108fc82150291906000818181858888f19350505050158015610dd6573d6000803e3d6000fd5b5050610de26001600055565b505050565b60086020528160005260406000208181548110610e0357600080fd5b90600052602060002001600091509150505481565b60018110158015610e2a575060058111155b610e765760405162461bcd60e51b815260206004820152601e60248201527f526174696e67206d757374206265206265747765656e203120616e6420350000604482015260640161052b565b6001600160a01b03821660009081526009602052604081208054839290610e9e908490612ac9565b90915550506001600160a01b0382166000908152600a60205260408120805491610ec783612adc565b9190505550816001600160a01b03167f0f28097b4af8a01cd2999adff5da8d7f7746e0086e94c724e334d4c4a352d9ea82604051610f0791815260200190565b60405180910390a25050565b6001600160a01b0381166000908152600a60205260408120548103610f3a57506000919050565b6001600160a01b0382166000908152600a6020908152604080832054600990925290912054610f699190612a94565b92915050565b6060816002548110610f935760405162461bcd60e51b815260040161052b90612867565b600083815260066020908152604080832080548251818502810185019093528083529193909284015b8282101561116357838290600052602060002090600602016040518060c0016040529081600082018054610fef90612904565b80601f016020809104026020016040519081016040528092919081815260200182805461101b90612904565b80156110685780601f1061103d57610100808354040283529160200191611068565b820191906000526020600020905b81548152906001019060200180831161104b57829003601f168201915b50505091835250506001820154602082015260028201546040820152600382015460609091019060ff1660048111156110a3576110a36123b0565b60048111156110b4576110b46123b0565b81526020016004820180546110c890612904565b80601f01602080910402602001604051908101604052809291908181526020018280546110f490612904565b80156111415780601f1061111657610100808354040283529160200191611141565b820191906000526020600020905b81548152906001019060200180831161112457829003601f168201915b5050505050815260200160058201548152505081526020019060010190610fbc565b5050505091505b50919050565b6007602052600090815260409020805460018201546002830154600384018054939492936001600160a01b0390921692916111aa90612904565b80601f01602080910402602001604051908101604052809291908181526020018280546111d690612904565b80156112235780601f106111f857610100808354040283529160200191611223565b820191906000526020600020905b81548152906001019060200180831161120657829003601f168201915b505050506004830154600590930154919260ff1691905086565b6006602052816000526040600020818154811061125957600080fd5b90600052602060002090600602016000915091505080600001805461127d90612904565b80601f01602080910402602001604051908101604052809291908181526020018280546112a990612904565b80156112f65780601f106112cb576101008083540402835291602001916112f6565b820191906000526020600020905b8154815290600101906020018083116112d957829003601f168201915b5050506001840154600285015460038601546004870180549697939692955060ff90911693509061132690612904565b80601f016020809104026020016040519081016040528092919081815260200182805461135290612904565b801561139f5780601f106113745761010080835404028352916020019161139f565b820191906000526020600020905b81548152906001019060200180831161138257829003601f168201915b5050505050908060050154905086565b6113b76120c5565b6113c160006121f8565b565b6000808451116114155760405162461bcd60e51b815260206004820152601f60248201527f4174206c65617374206f6e65206d696c6573746f6e6520726571756972656400604482015260640161052b565b82518451148015611427575081518351145b61147f5760405162461bcd60e51b8152602060048201526024808201527f4d696c6573746f6e6520617272617973206d7573742062652073616d65206c656044820152630dccee8d60e31b606482015260840161052b565b6000805b84518110156115965760008582815181106114a0576114a06128ee565b6020026020010151116114f55760405162461bcd60e51b815260206004820152601c60248201527f4d696c6573746f6e6520616d6f756e74206d757374206265203e203000000000604482015260640161052b565b42848281518110611508576115086128ee565b60200260200101511161155d5760405162461bcd60e51b815260206004820152601a60248201527f446561646c696e65206d75737420626520696e20667574757265000000000000604482015260640161052b565b84818151811061156f5761156f6128ee565b6020026020010151826115829190612ac9565b91508061158e81612adc565b915050611483565b50803410156115e75760405162461bcd60e51b815260206004820152601c60248201527f496e73756666696369656e742066756e6473206465706f736974656400000000604482015260640161052b565b60028054600091826115f883612adc565b9091555060008181526005602052604090208181556001810180546001600160a01b03191633179055909150600381016116328a82612986565b50600481016116418982612986565b506005810183905560068101805460ff19908116909155426007830155600982018054909116600117905560005b87518110156117bf5760006040518060c001604052808a8481518110611697576116976128ee565b602002602001015181526020018984815181106116b6576116b66128ee565b602002602001015181526020018884815181106116d5576116d56128ee565b60200260200101518152602001600060048111156116f5576116f56123b0565b81526040805160208181018352600080835281850192909252928201819052878152600680845291812080546001810182559082529290208351939450849392909102019081906117469082612986565b50602082015181600101556040820151816002015560608201518160030160006101000a81548160ff02191690836004811115611785576117856123b0565b02179055506080820151600482019061179e9082612986565b5060a0820151816005015550505080806117b790612adc565b91505061166f565b50336000908152600860209081526040822080546001810182559083529120018290553483101561182257336108fc6117f88534612ab6565b6040518115909202916000818181858888f19350505050158015611820573d6000803e3d6000fd5b505b604051838152339083907f1b9d0946c0a6f3b3a57782ad25a4553bd5bcf1f1a252068eafc757670aad573a9060200160405180910390a3817f26679fa1f3868c950e9362f1106cf73f3318de0280e0411a3c68e4b463eadd4f8460405161188b91815260200190565b60405180910390a250979650505050505050565b6118a76120c5565b6118af61211f565b60035482106118f95760405162461bcd60e51b8152602060048201526016602482015275111a5cdc1d5d1948191bd95cc81b9bdd08195e1a5cdd60521b604482015260640161052b565b6000828152600760205260409020600481015460ff161561195c5760405162461bcd60e51b815260206004820152601860248201527f4469737075746520616c7265616479207265736f6c7665640000000000000000604482015260640161052b565b60648211156119a25760405162461bcd60e51b8152602060048201526012602482015271496e76616c69642070657263656e7461676560701b604482015260640161052b565b805460018201546000828152600560209081526040808320600690925282208054919291849081106119d6576119d66128ee565b90600052602060002090600602019050600060648783600101546119fa9190612a7d565b611a049190612a94565b90506000818360010154611a189190612ab6565b90508115611a5e5760028401546040516001600160a01b039091169083156108fc029084906000818181858888f19350505050158015611a5c573d6000803e3d6000fd5b505b8015611aa25760018401546040516001600160a01b039091169082156108fc029083906000818181858888f19350505050158015611aa0573d6000803e3d6000fd5b505b60048701805460ff19908116600190811790925560038501805482166002179055600686018054909116909117905560405188815289907fb4121f1f91a696a3fc75f6d151f3c9865abffa0738bda595e71c381c02af2faa9060200160405180910390a250505050505050611b176001600055565b5050565b6000836002548110611b3f5760405162461bcd60e51b815260040161052b90612867565b60008581526005602052604090206001015485906001600160a01b0316331480611b8257506000818152600560205260409020600201546001600160a01b031633145b611bde5760405162461bcd60e51b815260206004820152602760248201527f4f6e6c792070726f6a656374207061727469636970616e74732063616e2063616044820152666c6c207468697360c81b606482015260840161052b565b60008681526005602052604090206001600682015460ff166004811115611c0757611c076123b0565b14611c245760405162461bcd60e51b815260040161052b90612897565b6000878152600660205260409020548610611c515760405162461bcd60e51b815260040161052b906128c3565b6000878152600660205260408120805488908110611c7157611c716128ee565b6000918252602090912060069091020190506001600382015460ff166004811115611c9e57611c9e6123b0565b14611cf95760405162461bcd60e51b815260206004820152602560248201527f43616e206f6e6c792064697370757465207375626d6974746564206d696c6573604482015264746f6e657360d81b606482015260840161052b565b6203f4808160050154611d0c9190612ac9565b421115611d545760405162461bcd60e51b8152602060048201526016602482015275111a5cdc1d5d19481c195c9a5bd908195e1c1a5c995960521b604482015260640161052b565b6003805460009182611d6583612adc565b9091555060008181526007602052604090208a8155600181018a90556002810180546001600160a01b0319163317905590915060038101611da68982612986565b506004818101805460ff1990811690915542600584015560068601805482168317905560038501805490911690911790556040513381528a9083907f83201991c75b30e493678d0543bdbd02d6a194a5a0dda31490a5fe09e9f0a2209060200160405180910390a35098975050505050505050565b6001600160a01b038116600090815260086020908152604091829020805483518184028101840190945280845260609392830182828015611e7b57602002820191906000526020600020905b815481526020019060010190808311611e67575b50505050509050919050565b611e8f6120c5565b6001600160a01b038116611ef45760405162461bcd60e51b815260206004820152602660248201527f4f776e61626c653a206e6577206f776e657220697320746865207a65726f206160448201526564647265737360d01b606482015260840161052b565b611efd816121f8565b50565b806002548110611f225760405162461bcd60e51b815260040161052b90612867565b600082815260056020526040812090600682015460ff166004811115611f4a57611f4a6123b0565b14611f8f5760405162461bcd60e51b815260206004820152601560248201527450726f6a656374206e6f7420617661696c61626c6560581b604482015260640161052b565b60028101546001600160a01b031615611fea5760405162461bcd60e51b815260206004820152601860248201527f50726f6a65637420616c72656164792061636365707465640000000000000000604482015260640161052b565b60018101546001600160a01b031633036120465760405162461bcd60e51b815260206004820181905260248201527f436c69656e742063616e6e6f7420616363657074206f776e2070726f6a656374604482015260640161052b565b6002810180546001600160a01b0319163390811790915560068201805460ff19166001908117909155426008808501919091556000838152602091825260408082208054948501815582529181209092018690555185917f3afbe557720c657b357055519b7971ffa35cd23fd38a67024de49537d7b20e4091a3505050565b6001546001600160a01b031633146113c15760405162461bcd60e51b815260206004820181905260248201527f4f776e61626c653a2063616c6c6572206973206e6f7420746865206f776e6572604482015260640161052b565b6002600054036121715760405162461bcd60e51b815260206004820152601f60248201527f5265656e7472616e637947756172643a207265656e7472616e742063616c6c00604482015260640161052b565b6002600055565b6000818152600660205260408120815b81548110156121ee5760028282815481106121a5576121a56128ee565b600091825260209091206003600690920201015460ff1660048111156121cd576121cd6123b0565b146121dc575060009392505050565b806121e681612adc565b915050612188565b5060019392505050565b600180546001600160a01b038381166001600160a01b0319831681179093556040519116919082907f8be0079c531659141344cd1fd0a4f28419497f9722a3daafe3b4186f6b6457e090600090a35050565b634e487b7160e01b600052604160045260246000fd5b604051601f8201601f1916810167ffffffffffffffff811182821017156122895761228961224a565b604052919050565b600082601f8301126122a257600080fd5b813567ffffffffffffffff8111156122bc576122bc61224a565b6122cf601f8201601f1916602001612260565b8181528460208386010111156122e457600080fd5b816020850160208301376000918101602001919091529392505050565b60008060006060848603121561231657600080fd5b8335925060208401359150604084013567ffffffffffffffff81111561233b57600080fd5b61234786828701612291565b9150509250925092565b60006020828403121561236357600080fd5b5035919050565b6000815180845260005b8181101561239057602081850181015186830182015201612374565b506000602082860101526020601f19601f83011685010191505092915050565b634e487b7160e01b600052602160045260246000fd5b60058110611efd57634e487b7160e01b600052602160045260246000fd5b8a81526001600160a01b038a8116602083015289166040820152610140606082018190526000906124178382018b61236a565b9050828103608084015261242b818a61236a565b9150508660a083015261243d866123c6565b8560c08301528460e0830152836101008301528215156101208301529b9a5050505050505050505050565b6000806040838503121561247b57600080fd5b50508035926020909101359150565b80356001600160a01b03811681146124a157600080fd5b919050565b600080604083850312156124b957600080fd5b6124c28361248a565b946020939093013593505050565b6000602082840312156124e257600080fd5b6124eb8261248a565b9392505050565b60006020808301818452808551808352604092508286019150828160051b87010184880160005b8381101561259e57603f19898403018552815160c0815181865261253f8287018261236a565b91505088820151898601528782015188860152606080830151612561816123c6565b908601526080828101518683038288015261257c838261236a565b60a0948501519790940196909652505094870194925090860190600101612519565b509098975050505050505050565b86815285602082015260018060a01b038516604082015260c0606082015260006125d960c083018661236a565b93151560808301525060a00152949350505050565b60c08152600061260160c083018961236a565b876020840152866040840152612616866123c6565b856060840152828103608084015261262e818661236a565b9150508260a0830152979650505050505050565b600067ffffffffffffffff82111561265c5761265c61224a565b5060051b60200190565b600082601f83011261267757600080fd5b8135602061268c61268783612642565b612260565b82815260059290921b840181019181810190868411156126ab57600080fd5b8286015b848110156126eb57803567ffffffffffffffff8111156126cf5760008081fd5b6126dd8986838b0101612291565b8452509183019183016126af565b509695505050505050565b600082601f83011261270757600080fd5b8135602061271761268783612642565b82815260059290921b8401810191818101908684111561273657600080fd5b8286015b848110156126eb578035835291830191830161273a565b600080600080600060a0868803121561276957600080fd5b853567ffffffffffffffff8082111561278157600080fd5b61278d89838a01612291565b965060208801359150808211156127a357600080fd5b6127af89838a01612291565b955060408801359150808211156127c557600080fd5b6127d189838a01612666565b945060608801359150808211156127e757600080fd5b6127f389838a016126f6565b9350608088013591508082111561280957600080fd5b50612816888289016126f6565b9150509295509295909350565b6020808252825182820181905260009190848201906040850190845b8181101561285b5783518352928401929184019160010161283f565b50909695505050505050565b602080825260169082015275141c9bda9958dd08191bd95cc81b9bdd08195e1a5cdd60521b604082015260600190565b60208082526012908201527150726f6a656374206e6f742061637469766560701b604082015260600190565b602080825260119082015270496e76616c6964206d696c6573746f6e6560781b604082015260600190565b634e487b7160e01b600052603260045260246000fd5b600181811c9082168061291857607f821691505b60208210810361116a57634e487b7160e01b600052602260045260246000fd5b601f821115610de257600081815260208120601f850160051c8101602086101561295f5750805b601f850160051c820191505b8181101561297e5782815560010161296b565b505050505050565b815167ffffffffffffffff8111156129a0576129a061224a565b6129b4816129ae8454612904565b84612938565b602080601f8311600181146129e957600084156129d15750858301515b600019600386901b1c1916600185901b17855561297e565b600085815260208120601f198616915b82811015612a18578886015182559484019460019091019084016129f9565b5085821015612a365787850151600019600388901b60f8161c191681555b5050505050600190811b01905550565b828152604060208201526000612a5f604083018461236a565b949350505050565b634e487b7160e01b600052601160045260246000fd5b8082028115828204841417610f6957610f69612a67565b600082612ab157634e487b7160e01b600052601260045260246000fd5b500490565b81810381811115610f6957610f69612a67565b80820180821115610f6957610f69612a67565b600060018201612aee57612aee612a67565b506001019056fea26469706673582212203ae69639d101b2cafa53dc08d32cba4e4e640482fd520d56975d99f64cf0ba1264736f6c63430008130033",
  "linkReferences": {},
  "deployedLinkReferences": {}
}